:0300000002041DDA
:0C041D00787FE4F6D8FD75814802046485
:10060000013800083901020408102040800A2B3FFD
:09061000065B4F666D7D077F6FEC
:03001B00020526B5
:07052600C0E0C0D075D01049
:10052D000535E53564037041F535E5A0541F44C02C
:10053D00F5A075800053A01FE5A0541F44E0F5A061
:10054D0074412521F8E6F4F58053A01FE5A0541F52
:10055D0044C0F5A074392521F8E6F58053A01F0598
:09056D0021E521B4080375210009
:05057600D0D0D0E032FE
:03000B000204A943
:1004A900C0E0C0D00537E537B46405753700D2011F
:1004B900D3E5289400E527940040520538E5222425
:1004C900FE601014601624027019E538B40814D2BD
:1004D900B48010E538B4070BD2B48007E538B4030B
:1004E90002D2B4E538B40A05753800C2B40526E568
:1004F9002670020525B41020E525B4271B752500B3
:10050900752600E5281528700F1527800B75A08022
:0D0519007580FF75A000C2B4D0D0D0E032D4
:10024600438E80438E40758AAE758CFBC28DD28CF0
:10025600758BCD758DD4C28FD28ED2A9D2ABD2AFCB
:10026600752201E4F527F528E5A0541F44A0F5A062
:10027600C28653A01F754140754340E4F5441205FC
:100286007B1201628F24E52224FE602514603D1452
:10029600605824037057852C42D3E5289400E5273F
:1002A60094004049E5A0541F4480F5A07580FE8067
:1002B60034852D42D3E5289400E5279400402EE5A9
:1002C600A0541F4480F5A07580FD8019852E42D369
:1002D600E5289400E52794004013E5A0541F4480C8
:1002E600F5A07580FB53A01F8003852F42E522B43D
:1002F6000422E4F545E52475F00A84242BF8E6F596
:1003060046E52475F00A84742B25F0F8E6F5477562
:1003160048398040852B45AE27AF287C007D641286
:1003260001E3742B2FF8E6F546AE27AF287C007D57
:100336000A1201E37C007D0A1201E3742B2DF8E614
:10034600F547AE27AF287C007D0A1201E3742B2DFA
:10035600F8E6F548200103020284C201E4F5C075FF
:10036600B00FE5C05404C454F0FFE5C05410333355
:100376003354F84FFFE5B0543F4FF52975C0147557
:10038600B0F0E5C0541033333354F84529FFE5C0C7
:100396005404C454F04FFFE5B0543F4FF4F52965BB
:1003A600235529F52A852923247E602024FE6034DE
:1003B60024FC605124076003020284B20030000668
:1003C600752204020284752201020284E4F527F5EF
:1003D60028E5A0541F4480F5A07580FF53A01FC2D6
:1003E600B4020284743C2528F528E43527F527D382
:1003F600E5289478E52794005003020284E4F52763
:10040600F5280202840522E522C394045003020261
:07041600847522010202843B
:04061A007F057E00DA
:10061E00EF1FAA0670011E4A600BE4FDEDC3940C99
:05062E0050EE0D80F705
:0106330022A4
:0205E200A90767
:1005E400E4FBC294E913929412061AD294E9C31359
:0C05F400F90BBB08ED7F057E0002061E1F
:10063400E4FBC294ECC313FCD294309403430480CF
:0906440012061A0BBB08EBAF040F
:01064D00228A
:1005BB00C203D2947F0C7E0012061EC2947F507E23
:1005CB000012061ED2947F0A7E0012061EA294927F
:0605DB000312061AA20340
:0105E10022F7
:10057B001205BB7FCC1205E27F441205E27FC87ED9
:10058B000012061E1205BB7FCC1205E27FBE1205C0
:10059B00E2120634A907120634EFFEE9FFE4AD07B9
:0F05AB00AC06120129E4FBFA7980783D12001E9C
:0105BA00221E
:10001E00EC4D6011E8497017ED33EC3304600DE4DC
:10002E00FCFFFEFD22E933E8330470F80201CE1224
:10003E00019958046009E4CC248150062850090225
:10004E0001D82840030201D5C0E0EB4A7044B980C4
:10005E0006D0E0FB0201C4EF4E701CBD8008EBFF22
:10006E00EAFEE9FD80EBE98DF0A4FEE5F002010762
:10007E00E9CDF9EAFEEBFFEF89F0A4FCE5F0CE89BD
:10008E00F0A42EFFE435F0CD89F0A42DFEE435F07A
:10009E008067EF4E7005BD80D780C3EF8BF0A4ACA8
:1000AE00F0EE8BF0A42CFCE435F0F8EF8AF0A42CE3
:1000BE00E5F038FCE433CB8DF0A42CFCE5F03BF8F6
:1000CE00EE8AF0A42CFCE5F038F8E433CF89F0A4E6
:1000DE002CFCE5F038CF3400CE89F0A42FFFE5F0EC
:1000EE003EFEE433C98DF0A42EFEE5F039CD8AF044
:1000FE00A42FFFE5F03EFEE43DFD33D0E0FB5007BC
:10010E000BBB000F0201D8EC2CFCEF33FFEE33FEDD
:06011E00ED33FD0201B00B
:1001240075F020800E75F010800575F0087D007E56
:10013400007F003392D530D503120238EC334010DF
:10014400EF33FFEE33FEED33FDEC33FCD5F0ED225F
:0E015400E5F0247EA2D513CC92E7CDCEFF229B
:10016200EDD2E7CD33EC3392D524814006E4FFFE95
:10017200FDFC22FCE4CFCECDCC24E0501174FF80F4
:10018200EDC3CC13CCCD13CDCE13CECF13CF047091
:07019200F030D5DE02023857
:10019900E9D2E7C933E833F892D5EDD2E7CD33ECAC
:0701A90033FC5002B2D52225
:1001B000EC30E7100FBF000C0EBE00080DBD0004B0
:1001C0000BEB6014A2D5EB13FCED92E7FD2274FF5C
:1001D000FCFDFEFF22E480F8A2D574FF13FC7D80B5
:0301E000E480EFC9
:10042900020246E493A3F8E493A34003F68001F2A1
:1004390008DFF48029E493A3F85407240CC8C333D4
:10044900C4540F4420C8834004F456800146F6DFA3
:10045900E4800B0102040810204080900600E47E2D
:10046900019360BCA3FF543F30E509541FFEE49398
:10047900A360010ECF54C025E060A840B8E493A35F
:10048900FAE493A3F8E493A3C8C582C8CAC583CA8A
:10049900F0A3C8C582C8CAC583CADFE9DEE780BE42
:0106190000E0
:1001E300BC000BBE0029EF8DF084FFADF022E4CC00
:1001F300F875F008EF2FFFEE33FEEC33FCEE9DECC9
:10020300984005FCEE9DFE0FD5F0E9E4CEFD22ED0E
:10021300F8F5F0EE8420D21CFEADF075F008EF2F58
:10022300FFED33FD4007985006D5F0F222C398FD49
:050233000FD5F0EA22E6
:0E023800C3E49FFFE49EFEE49DFDE49CFC22D7
:00000001FF
