:1000CD0008085B3F067F405B404F081001020408A3
:0400DD00102040802F
:0B00E200EF1FAC0670011E4C70F622F0
:10008F00E5A0541F44A0F5A0C28653A01FE4FDE5D0
:10009F00A0541F44C0F5A074102DF8E6F580E5A01C
:1000AF00541F44E0F5A074082DF8E6F4F5807F6442
:0E00BF007E001200E2E4F5800DBD08D380CF74
:03000000020003F8
:0C000300787FE4F6D8FD75811702004AF2
:10000F0002008FE493A3F8E493A34003F68001F278
:10001F0008DFF48029E493A3F85407240CC8C333F2
:10002F00C4540F4420C8834004F456800146F6DFC1
:10003F00E4800B01020408102040809000CDE47E84
:10004F00019360BCA3FF543F30E509541FFEE493B6
:10005F00A360010ECF54C025E060A840B8E493A37D
:10006F00FAE493A3F8E493A3C8C582C8CAC583CAA8
:10007F00F0A3C8C582C8CAC583CADFE9DEE780BE60
:0100E100001E
:00000001FF
