:100643000A3500000000000000000000084101021C
:100653000408102040800A273F065B4F666D7D0724
:020663007F6FA7
:03001B000205914A
:07059100C0E0C0D075D010DE
:1005980005210522E521B40A05752100D202E522CC
:1005A80064017030F52275A0C0F580F5A075A0E053
:1005B800744A2523F8E6F4F58075A00075A0C07488
:1005C800412523F8E6F58075A0000523E523B40846
:0405D8000375230084
:0505DC00D0D0D0E03298
:03000B0002047973
:10047900C0E0C0D00525E52570020524E531C39506
:10048900495023C3E5259420E52494034069B2002B
:1004990030000875A0807580FE800675A080758083
:1004A900FF75A000804BE531D395525023C3E52554
:1004B9009490E5249401403FB20030000875A08073
:1004C9007580FE800675A0807580FF75A00080216B
:1004D900C3E52594C8E5249400401CB20030000807
:1004E90075A0807580FE800675A0807580FF75A057
:0C04F90000752400752500D0D0D0E03242
:10001E00438EC0758ACD758CD4C28DD28C758BCD26
:10002E00758DD4C28FD28ED2A9D2ABD2AF754914F0
:10003E0075521E75A0A0C286020266754A40E4F58E
:10004E004EF54DD3E5349404E53364809480400638
:10005E007533007534012002030201A4C202E4F5D7
:10006E00C075B00FE5C05404C454F0FFE5C0541081
:10007E0033333354F84FFFE5B0543F4FFF75C01480
:10008E0075B0F0E5C0541033333354F84FFFE5C06C
:10009E005404C454F04FFFE5B0543F4FF4FF6508CD
:1000AE005FFE8F0820030302019B120453018D2172
:1000BE00017D22016D24015228014241013242018B
:1000CE00224401138101028200F18400E0880000C5
:1000DE00019B753F007540090534E53470340533D6
:1000EE0002019B753F007540060534E5347002052C
:1000FE003302019B753F007540030534E5347002F1
:10010E00053302019BE4F53FF5400534E5347002FA
:10011E0005338079753F007540070534E534706D01
:10012E0005338069753F007540040534E534705D14
:10013E0005338059753F007540010534E534704D27
:10014E0005338049E4F535F536F537F538F539F5EB
:10015E003AF53BF53CF53DF53EF533F534802E751D
:10016E003F007540080534E53470220533801E7556
:10017E003F007540050534E53470120533800E7569
:10018E003F007540020534E53470020533EE24B8A5
:10019E007004D2030532200157200354E4F54F7545
:1001AE004C401205E11203C48F31E53175F00A841B
:1001BE002427F8E6F550E53175F00A84742725F00A
:1001CE00F8E6F551E531C39549500585274B800A70
:1001DE00E531D39552500C85284B75A0A0C286C22E
:1001EE0084800A85294B75A0A0C286D284E4F5A02E
:1001FE0020030302004974272538F8E6F54B7427CF
:10020E00253AF8E6F54C754F407427253CF8E6F58F
:10021E00507427253EF8E6F551E532B4010CE5346D
:10022E0025E02435F8A63F08A640E53264026003B7
:10023E00020049E53C75F00AA4253EF549E53875FE
:10024E00F00AA4253AF552C395495012C2A9D2011B
:10025E0075A0807580FFC281E4F5A0020049D2A985
:10026E00C20175A0807580FFE4F5A0F532C20302CD
:02027E00004935
:040684007F057E0070
:10068800EF1FAA0670011E4A600BE4FDEDC3940C2F
:0506980050EE0D80F79B
:01069D00223A
:10061C00C204D2947F0C7E00120688C2947F507E56
:10062C0000120688D2947F0A7E00120688A2949249
:06063C0004120684A20472
:010642002295
:02066600A907E2
:10066800E4FBC294E9139294120684D294E9C3136A
:0C067800F90BBB08ED7F057E0002068830
:10069E00E4FBC294ECC313FCD29430940343048065
:0906AE001206840BBB08EBAF043B
:0106B7002220
:1005E10012061C7FCC1206667F441206667FC87E07
:1005F1000012068812061C7FCC1206667FBE120608
:100601006612069EA90712069EE9FFFCE4120390FA
:0A061100E4FBFA7980783D120280C4
:01061B0022BC
:10028000EC4D6011E8497017ED33EC3304600DE478
:10029000FCFFFEFD22E933E8330470F8020430125B
:1002A00003FB58046009E4CC24815006285009025D
:1002B000043A284003020437C0E0EB4A7044B98096
:1002C00006D0E0FB020426EF4E701CBD8008EBFF59
:1002D000EAFEE9FD80EBE98DF0A4FEE5F00203699A
:1002E000E9CDF9EAFEEBFFEF89F0A4FCE5F0CE8959
:1002F000F0A42EFFE435F0CD89F0A42DFEE435F016
:100300008067EF4E7005BD80D780C3EF8BF0A4AC43
:10031000F0EE8BF0A42CFCE435F0F8EF8AF0A42C7E
:10032000E5F038FCE433CB8DF0A42CFCE5F03BF891
:10033000EE8AF0A42CFCE5F038F8E433CF89F0A481
:100340002CFCE5F038CF3400CE89F0A42FFFE5F087
:100350003EFEE433C98DF0A42EFEE5F039CD8AF0DF
:10036000A42FFFE5F03EFEE43DFD33D0E0FB500757
:100370000BBB000F02043AEC2CFCEF33FFEE33FE14
:06038000ED33FD02041242
:1003860075F020800E75F010800575F0087D007EF2
:10039600007F003392D530D503120445EC3340106C
:1003A600EF33FFEE33FEED33FDEC33FCD5F0ED22FB
:0E03B600E5F0247EA2D513CC92E7CDCEFF2237
:1003C400EDD2E7CD33EC3392D524814006E4FFFE31
:1003D400FDFC22FCE4CFCECDCC24E0501174FF8090
:1003E400EDC3CC13CCCD13CDCE13CECF13CF04702D
:0703F400F030D5DE020445E4
:1003FB00E9D2E7C933E833F892D5EDD2E7CD33EC48
:07040B0033FC5002B2D522C0
:10041200EC30E7100FBF000C0EBE00080DBD00044B
:100422000BEB6014A2D5EB13FCED92E7FD2274FFF7
:10043200FCFDFEFF22E480F8A2D574FF13FC7D8050
:03044200E480EF64
:03000000020505F1
:0C050500787FE4F6D8FD75815202054CA9
:0E044500C3E49FFFE49EFEE49DFDE49CFC22C8
:10045300D083D082F8E4937012740193700DA3A338
:1004630093F8740193F5828883E47374029368604C
:06047300EFA3A3A380DF4C
:1005110002001EE493A3F8E493A34003F68001F2E2
:1005210008DFF48029E493A3F85407240CC8C333EB
:10053100C4540F4420C8834004F456800146F6DFBA
:10054100E4800B0102040810204080900643E47E01
:10055100019360BCA3FF543F30E509541FFEE493AF
:10056100A360010ECF54C025E060A840B8E493A376
:10057100FAE493A3F8E493A3C8C582C8CAC583CAA1
:10058100F0A3C8C582C8CAC583CADFE9DEE780BE59
:010665000094
:00000001FF
