:100696000A2C3F065B4F666D7D077F6F083A0102A5
:0606A60004081020408052
:03000B0002059754
:07059700C0E0C0D075D008E0
:10059E0005210522E522B40A05752200D201E521C6
:1005AE0064037031F52175A0C07580FFF5A075A0AC
:1005BE00E074422524F8E6F4F58075A00075A0C01D
:1005CE00743A2524F8E6F58075A0000524E524B4D8
:1005DE0008037524003000120523E523B4640B755F
:0A05EE0023000529E5297002052805
:0505F800D0D0D0E0327C
:10032A00438E805389F0758ACD758CD4C28DD28C58
:10033A00D2A9D2AF75A0A0C286C284E4F5A0F542C4
:10034A00E52C4480F543853144852C45C2A97F01BB
:10035A001205FDAC07E4120237E4FBFA797F784311
:10036A00120117E4FBFA79A0784012000E8F398E39
:10037A00388D378C36D2A9E4FFFE7DA07C3FAB399D
:10038A00AA38A937A8361201B4500875A08075801A
:10039A00FE800675A0807580FFE4F5A0300071AE7E
:1003AA0028AF297C037DE81202C7742C2FF8E6F5E2
:1003BA0046AE28AF297C007D641202C77C007D0A04
:1003CA001202C7742C2DF8E64480F547AE28AF29EF
:1003DA007C007D0A1202C77C007D0A1202C7742CB7
:1003EA002DF8E6F548AE28AF297C007D0A1202C72F
:1003FA00742C2DF8E6F549E529640F7004E52864A4
:10040A0027707775A0A0C284C286F5A0C200806A50
:10041A00AE28AF297C007D051202B58E258F267C79
:10042A00277D101202C7742C2FF8E6F546AE25AFC9
:10043A00267C037DE81202C77C007D0A1202C7747B
:10044A002C2DF8E64480F547AE25AF267C007D6466
:10045A001202C77C007D0A1202C7742C2DF8E6F539
:10046A0048AE25AF267C007D0A1202C77C007D0AB1
:10047A001202C7742C2DF8E6F5492001030203562F
:10048A00C20175C01475B0F0E5C05404C454F0FF3D
:10049A00E5C0541033333354F84FFFE5B0543F4F9F
:1004AA00F52AE4F5C075B00FE5C054103333335460
:1004BA00F8452AFFE5C05404C454F04FFFE5B05490
:1004CA003F4FF4F52A6527552AF52B852A27200060
:1004DA0018247F701475A0A0D284C286E4F5A0F512
:1004EA0025F526F528F529D200E52B247E6003029E
:1004FA00035675A0A0C284C286E4F5A0C200020316
:01050A00569A
:05000300007F0BDFFE91
:0100080022D5
:0F06AD00D2A1D2A0120003C2A1120003C2A02248
:0A06BC00C2A1D2A0120003D2A122B5
:10067E00300204C2A18002D2A1120003D2A0120045
:08068E0003C2A0D2A102000387
:0306630012062557
:10066600D2A1120003D2A012000330A107C2A01229
:0806760006BCC322C2A0D3227E
:02062500AE071E
:10062700E4FDEE30E704D2A18002C2A1120003D29A
:0E063700A0EE25E0FE120003C2A00DBD08E4F7
:010645002292
:10064600E4FDD2A0120003EE25E0FE30A10343062E
:0C06560001C2A01200030DBD08E8AF06B1
:010662002275
:0205FD00AC0749
:1005FF001206AD7F90120663AF041206631206ADAA
:10060F007F91120625120666120646AE071206667F
:05061F001206BCAF064D
:0106240022B3
:10000E00EC4D6011E8497017ED33EC3304600DE4EC
:10001E00FCFFFEFD22E933E8330470F80202A01261
:10002E00026B58046009E4CC248150062850090262
:10003E0002AA2840030202A7C0E0EB4A7044B9802E
:10004E0006D0E0FB020296EF4E701CBD8008EBFF5F
:10005E00EAFEE9FD80EBE98DF0A4FEE5F00200F783
:10006E00E9CDF9EAFEEBFFEF89F0A4FCE5F0CE89CD
:10007E00F0A42EFFE435F0CD89F0A42DFEE435F08A
:10008E008067EF4E7005BD80D780C3EF8BF0A4ACB8
:10009E00F0EE8BF0A42CFCE435F0F8EF8AF0A42CF3
:1000AE00E5F038FCE433CB8DF0A42CFCE5F03BF806
:1000BE00EE8AF0A42CFCE5F038F8E433CF89F0A4F6
:1000CE002CFCE5F038CF3400CE89F0A42FFFE5F0FC
:1000DE003EFEE433C98DF0A42EFEE5F039CD8AF054
:1000EE00A42FFFE5F03EFEE43DFD33D0E0FB5007CC
:1000FE000BBB000F0202AAEC2CFCEF33FFEE33FE1B
:06010E00ED33FD02028248
:100114000202AAEC5D046005E8590470030202A01F
:1001240012026B580460F6EC4860F2EC7004FDFEB9
:10013400FF22C860DB2481C85009C39860025006BE
:100144000202A79850CAF582E9294B4A7005AB828E
:1001540002029675F0007C1A7880C3EF9BEE9AED4C
:1001640099400DC3EF9BFFEE9AFEED99FDE842F036
:10017400DC23ACF0D0E0FFD0E0FED0E0FDAB822089
:10018400E7101BEB60BAEC2CFCEF33FFEE33FEED13
:1001940033FD020282E803F830E705C0F075F00091
:1001A400EF2FFFEE33FEED33FD40B830E7C280AAF7
:1001B40074F8CC6480CCC86480C8F58204604FC3F2
:1001C400EB9FF5F0EA9E42F0E99D42F0E89C45F091
:1001D400603C501DE5825FFFE582D313CB5BCBF41B
:1001E4002B5582FB50280ABA002409B90020088044
:1001F4001DE5825BFBE582D313CF5FCFF4C3132FDE
:100204005582FF50090EBE00050DBD00010CC3EB65
:100214009FF5F0EA9E42F0E99D42F0E89C45F060CB
:0902240007CC4820E701B3EC22ED
:10022D0075F020800E75F010800575F0087D007E4C
:10023D00007F003392D530D50312031CEC334010F0
:10024D00EF33FFEE33FEED33FDEC33FCD5F0ED2255
:0E025D00E5F0247EA2D513CC92E7CDCEFF2291
:10026B00E9D2E7C933E833F892D5EDD2E7CD33ECD9
:07027B0033FC5002B2D52252
:10028200EC30E7100FBF000C0EBE00080DBD0004DD
:100292000BEB6014A2D5EB13FCED92E7FD2274FF89
:1002A200FCFDFEFF22E480F8A2D574FF13FC7D80E2
:0302B200E480EFF6
:0300000002050BEB
:0C050B00787FE4F6D8FD758149020552A6
:1002B500EF8DF0A4A8F0CF8CF0A428CE8DF0A42E5D
:0202C500FE2217
:1002C700BC000BBE0029EF8DF084FFADF022E4CC1B
:1002D700F875F008EF2FFFEE33FEEC33FCEE9DECE4
:1002E700984005FCEE9DFE0FD5F0E9E4CEFD22ED2A
:1002F700F8F5F0EE8420D21CFEADF075F008EF2F74
:10030700FFED33FD4007985006D5F0F222C398FD64
:050317000FD5F0EA2201
:0E031C00C3E49FFFE49EFEE49DFDE49CFC22F2
:1005170002032AE493A3F8E493A34003F68001F2CD
:1005270008DFF48029E493A3F85407240CC8C333E5
:10053700C4540F4420C8834004F456800146F6DFB4
:10054700E4800B0102040810204080900696E47EA8
:10055700019360BCA3FF543F30E509541FFEE493A9
:10056700A360010ECF54C025E060A840B8E493A370
:10057700FAE493A3F8E493A3C8C582C8CAC583CA9B
:10058700F0A3C8C582C8CAC583CADFE9DEE780BE53
:0106AC00004D
:00000001FF
