:0300000002048176
:0C048100787FE4F6D8FD7581590204C8AC
:1005C000084401020408102040800A373F065B4FB0
:1005D000666D7D077F6FC104C100C101045601052E
:0505E0001E3C0121009A
:03000B000203EA03
:0903EA00C0E0C0F0C0D075D008DD
:1003F300054205410534E53470020533E542B40A8C
:1004030005D201754200E54164037031F54175A0E1
:10041300E0F580F5A075A0C074442521F8E6F580C9
:1004230075A00075A0E0744E2521F8E6F4F58075FB
:10043300A000AF210521EFB40803752100E534B412
:10044300E80DE533B40308753300753400B200E5F5
:1004530043B401230524E52470020523AF227E0063
:100463007C037DE81203CAEFB5240CEEB5230875AF
:070473002300752400D202F2
:07047A00D0D0D0F0D0E03239
:10000E00438E805389F0758ACD758CD4C28DD28C77
:10001E00D2A9D2AF75A0A0C286E4F5A07B327D3BFB
:10002E007F1712050DE543702BF54EF54FF550F584
:10003E0051F5527553407456254DF8E6FF75F00A8A
:10004E00842437F8E6F554EF75F00A84743725F0FA
:10005E00F8E6F555E5436401707812068BE536C473
:10006E00540F2437F8E6F54EE536540F2437F8E6EC
:10007E00F54FE535C4540F2437F8E6F551E5355400
:10008E000F2437F8E6F552E532C4540F2437F8E65C
:10009E00F554E532540F2437F8E6F555300008755F
:1000AE0050407553408005E4F550F553300223C29D
:1000BE0002E54CC3940B5015C2A912055E120349FA
:1000CE007428254CF8A607D2A9054C8005D20475D4
:1000DE004302E54364027076E5257018754E40853F
:1000EE00374F853750F551F5527553408537548546
:1000FE0037558043754E40E52575F00A842437F850
:10010E00E6F54FE52575F00A84743725F0F8E6F527
:10011E0050E4F551F55275534074282525F8E6FF45
:10012E0075F00A842437F8E6F554EF75F00A8474F6
:10013E003725F0F8E6F55530041430000875A08028
:10014E0075807F800675A0807580FFE4F5A0200184
:10015E0003020033C201E4F5C075B00FE5C0544090
:10016E00C454F0FFE5C0541033333354F84FFFE559
:10017E00B0543F4FFF75C01475B0F0E5C054103346
:10018E00333354F84FFFE5C05440C454F04FFFE5ED
:10019E00B0543F4FF4FF65115FF5108F11B481100D
:1001AE00E543700CF543054DE54DB40403E4F54D00
:1001BE00E510B4820FE543700B7543017456254D5F
:1001CE00F8E6F522E510B48415C20475A08075809A
:1001DE00FFE4F5A00525E525B40B03E4F525E510B0
:1001EE0064886003020033E5436402600302003357
:0701FE00F543F54C0200334C
:10068B007F811206A18F327F831206A18F357F8562
:06069B001206A18F3622B9
:10062100C297E4FEEF30E004D2A38002C2A3D297C6
:0A063100C297EFC313FF0EBE08EAE4
:01063B00229C
:10060400E4FFFEEFC313FF30A305430780800353C9
:0C061400077FD297C2970EBE08E9C2A370
:0106200022B7
:03063C0025F0FDA9
:10063F00AE07C293C297D2935306FEAF061206219E
:08064F00AF05120621C293223F
:1006A100C293C297D293430701120621120604C2D4
:0106B10093B5
:0106B2002225
:10050D00AC07AA05E4FD7F8E12063FEB75F00A8459
:10051D00C454F0FFEB75F00A84EF7F8012063CEABD
:10052D0075F00A84C454F0FFEA75F00A84EF7F82F7
:10053D0012063CEC75F00A84C454F0FFEC75F00A19
:10054D0084EF25F0FD7F8412063F7D807F8E0206AD
:01055D003F5E
:040657007F057E009D
:10065B00EF1FAA0670011E4A600BE4FDEDC3940C5C
:05066B0050EE0D80F7C8
:010670002267
:10059900C205D2947F0C7E0012065BC2947F507E06
:1005A9000012065BD2947F0A7E0012065BA2949227
:0605B90005120657A20521
:0105BF002219
:0205E600A90763
:1005E800E4FBC294E9139294120657D294E9C31318
:0C05F800F90BBB08ED7F057E0002065BDE
:10067100E4FBC294ECC313FCD29430940343048092
:090681001206570BBB08EBAF0495
:01068A00224D
:10055E001205997FCC1205E67F441205E67FC87E10
:10056E000012065B1205997FCC1205E67FBE1205BE
:10057E00E6120671A907120671E9FFFCE4120315D3
:0A058E00E4FBFA7980783D120205C3
:010598002240
:10020500EC4D6011E8497017ED33EC3304600DE4F3
:10021500FCFFFEFD22E933E8330470F80203B51252
:10022500038058046009E4CC248150062850090253
:1002350003BF2840030203BCC0E0EB4A7044B98009
:1002450006D0E0FB0203ABEF4E701CBD8008EBFF50
:10025500EAFEE9FD80EBE98DF0A4FEE5F00202EE91
:10026500E9CDF9EAFEEBFFEF89F0A4FCE5F0CE89D4
:10027500F0A42EFFE435F0CD89F0A42DFEE435F091
:100285008067EF4E7005BD80D780C3EF8BF0A4ACBF
:10029500F0EE8BF0A42CFCE435F0F8EF8AF0A42CFA
:1002A500E5F038FCE433CB8DF0A42CFCE5F03BF80D
:1002B500EE8AF0A42CFCE5F038F8E433CF89F0A4FD
:1002C5002CFCE5F038CF3400CE89F0A42FFFE5F003
:1002D5003EFEE433C98DF0A42EFEE5F039CD8AF05B
:1002E500A42FFFE5F03EFEE43DFD33D0E0FB5007D3
:1002F5000BBB000F0203BFEC2CFCEF33FFEE33FE0C
:06030500ED33FD02039739
:10030B0075F020800E75F010800575F0087D007E6D
:10031B00007F003392D530D5031203DCEC33401051
:10032B00EF33FFEE33FEED33FDEC33FCD5F0ED2276
:0E033B00E5F0247EA2D513CC92E7CDCEFF22B2
:10034900EDD2E7CD33EC3392D524814006E4FFFEAC
:10035900FDFC22FCE4CFCECDCC24E0501174FF800B
:10036900EDC3CC13CCCD13CDCE13CECF13CF0470A8
:07037900F030D5DE0203DCC9
:10038000E9D2E7C933E833F892D5EDD2E7CD33ECC3
:0703900033FC5002B2D5223C
:10039700EC30E7100FBF000C0EBE00080DBD0004C7
:1003A7000BEB6014A2D5EB13FCED92E7FD2274FF73
:1003B700FCFDFEFF22E480F8A2D574FF13FC7D80CC
:0303C700E480EFE0
:10048D0002000EE493A3F8E493A34003F68001F277
:10049D0008DFF48029E493A3F85407240CC8C33370
:1004AD00C4540F4420C8834004F456800146F6DF3F
:1004BD00E4800B01020408102040809005C0E47E0A
:1004CD00019360BCA3FF543F30E509541FFEE49334
:1004DD00A360010ECF54C025E060A840B8E493A3FB
:1004ED00FAE493A3F8E493A3C8C582C8CAC583CA26
:1004FD00F0A3C8C582C8CAC583CADFE9DEE780BEDE
:0105E5000015
:1003CA00EF8DF0A4A8F0CF8CF0A428CE8DF0A42E47
:0203DA00FE2201
:0E03DC00C3E49FFFE49EFEE49DFDE49CFC2232
:00000001FF
