:10071400083A01020408102040800A2C3F065B4F6F
:06072400666D7D077F6F8A
:100759007F8512064D8F297F8312064D8F287F8151
:0607690012064D8F26224E
:10060C00754340754440E4F545E54275F00A842491
:10061C002CF8E6F546E54275F00A84742C25F0F8C2
:10062C00E6F547E4F548E52475F00A84242CF8E651
:10063C00F549E52475F00A84742C25F0F8E6F54AA2
:01064C00228B
:10051000AD247F01120742E528C4540F242CF8E6CD
:10052000F543E528540F242CF8E6F544754540E5DD
:1005300026C4540F242CF8E6F546E526540F242C47
:10054000F8E6F547E4F548AF39AE38AD37AC3612CA
:10055000026BEF75F00A84242CF8E6F549EF75F08C
:0B0560000A84742C25F0F8E6F54A220E
:03000B000205BC2F
:0705BC00C0E0C0D075D008BB
:1005C3000521E521B46405752100D2040522E52245
:1005D30064017030F52275A0C0F580F5A075A0E028
:1005E30074432523F8E6F4F58075A00075A0C07464
:1005F3003A2523F8E6F58075A0000523E523B40822
:040603000375230058
:05060700D0D0D0E0326C
:1002FA00438E805389F0758ACD758CD4C28DD28C89
:10030A00D2A9D2AFE4FB7D1E7F0812056B75A0A0AF
:10031A00C286C284E4F5A0752432C2A91207597FA5
:10032A00011207848F427F0312076FAC07E412029F
:10033A0037E4FBFA797F7843120117E4FBFA79C6AE
:10034A00784212000E8F398E388D378C36D2A9300A
:10035A00000512060C800312051020032975A080DF
:10036A007580FEE4F5A0AC24120237AB39AA38A98D
:10037A0037A8361201B4500775A0A0D284804475FC
:10038A00A0A0C284803D75A0807580FDE4F5A030F0
:10039A00010975A0A0D284F5A0800875A0A0C28426
:1003AA00E4F5A0300221AC24E4120237AB39AA38B2
:1003BA00A937A8361201B4500775A0A0D286800CBE
:1003CA0075A0A0C286800575A0A0C286E4F5A0200B
:1003DA000403020324C204E4F5C075B00FE5C05457
:1003EA0004C454F0FFE5C0541033333354F84FFFBC
:1003FA00E5B0543F4FF52A75C01475B0F0E5C05406
:10040A001033333354F8452AFFE5C05404C454F07A
:10041A004FFFE5B0543F4FF4F52A6527552AF52BCF
:10042A00852A27247F7002B203200328E52B247E25
:10043A00602024FE601024FC701A1524E524B4FF01
:10044A0013752463800E0524E524B46407E4F524B7
:10045A008002B200200303020324E52B247E6015E8
:10046A0024FE600C24FC6003020324C2010203245C
:0A047A00D201020324B2020203249F
:10079900E4FEC297EF1392A3EFC313FFD2970EBEE5
:0207A90008F056
:0107AB00222B
:03072B0025F0FDB9
:10072E00C29300C29700D29300120799AF05120729
:04073E0099C29322A7
:10064D00E4FDC29300C29700D29300120799E4FF14
:10065D00C297EDC313FD30A303430580D2970FBF9F
:10066D0008EEC29300C293C29700D29700C2A300B6
:05067D00D2A300AF054F
:010682002255
:10056B00AC07AA05E4FD7F8E12072EEB75F00A840B
:10057B00C454F0FFEB75F00A84EF7F8012072BEA6F
:10058B0075F00A84C454F0FFEA75F00A84EF7F8299
:10059B0012072BEC75F00A84C454F0FFEC75F00ACB
:1005AB0084EF25F0FD7F8412072E7D807F8E02075E
:0105BB002E11
:05000300007F0BDFFE91
:0100080022D5
:0F07AC00D2A1D2A0120003C2A1120003C2A02248
:0E06E4001206A612068E1206C7AE0712068E6A
:0A06F200C2A1D2A0120003D2A1227F
:1006FC00300504C2A18002D2A1120003D2A01200C4
:08070C0003C2A0D2A102000308
:0B0683001206A612068EAF041206A697
:10068E00D2A1120003D2A012000330A107C2A01201
:08069E0006F2C322C2A0D32220
:0206A600AE079D
:1006A800E4FDEE30E704D2A18002C2A1120003D219
:0E06B800A0EE25E0FE120003C2A00DBD08E476
:0106C6002211
:1006C700E4FDD2A0120003EE25E0FE30A1034306AD
:0C06D70001C2A01200030DBD08E8AF0630
:0106E30022F4
:02076F00AC07D5
:100771001207AC7F901206831207AC7F911206E438
:02078100AF06C1
:010783002253
:10074200AC05AB071207AC7FA01206A612068EAF4D
:07075200031206830206F208
:02078400AC07C0
:100786001207AC7FA01206831207AC7FA11206E403
:02079600AF06AC
:01079800223E
:10000E00EC4D6011E8497017ED33EC3304600DE4EC
:10001E00FCFFFEFD22E933E8330470F80202D7122A
:10002E0002A258046009E4CC24815006285009022B
:10003E0002E12840030202DEC0E0EB4A7044B980C0
:10004E0006D0E0FB0202CDEF4E701CBD8008EBFF28
:10005E00EAFEE9FD80EBE98DF0A4FEE5F00200F783
:10006E00E9CDF9EAFEEBFFEF89F0A4FCE5F0CE89CD
:10007E00F0A42EFFE435F0CD89F0A42DFEE435F08A
:10008E008067EF4E7005BD80D780C3EF8BF0A4ACB8
:10009E00F0EE8BF0A42CFCE435F0F8EF8AF0A42CF3
:1000AE00E5F038FCE433CB8DF0A42CFCE5F03BF806
:1000BE00EE8AF0A42CFCE5F038F8E433CF89F0A4F6
:1000CE002CFCE5F038CF3400CE89F0A42FFFE5F0FC
:1000DE003EFEE433C98DF0A42EFEE5F039CD8AF054
:1000EE00A42FFFE5F03EFEE43DFD33D0E0FB5007CC
:1000FE000BBB000F0202E1EC2CFCEF33FFEE33FEE4
:06010E00ED33FD0202B911
:100114000202E1EC5D046005E8590470030202D7B1
:100124001202A2580460F6EC4860F2EC7004FDFE82
:10013400FF22C860DB2481C85009C39860025006BE
:100144000202DE9850CAF582E9294B4A7005AB8257
:100154000202CD75F0007C1A7880C3EF9BEE9AED15
:1001640099400DC3EF9BFFEE9AFEED99FDE842F036
:10017400DC23ACF0D0E0FFD0E0FED0E0FDAB822089
:10018400E7101BEB60BAEC2CFCEF33FFEE33FEED13
:1001940033FD0202B9E803F830E705C0F075F0005A
:1001A400EF2FFFEE33FEED33FD40B830E7C280AAF7
:1001B40074F8CC6480CCC86480C8F58204604FC3F2
:1001C400EB9FF5F0EA9E42F0E99D42F0E89C45F091
:1001D400603C501DE5825FFFE582D313CB5BCBF41B
:1001E4002B5582FB50280ABA002409B90020088044
:1001F4001DE5825BFBE582D313CF5FCFF4C3132FDE
:100204005582FF50090EBE00050DBD00010CC3EB65
:100214009FF5F0EA9E42F0E99D42F0E89C45F060CB
:0902240007CC4820E701B3EC22ED
:10022D0075F020800E75F010800575F0087D007E4C
:10023D00007F003392D530D5031202ECEC33401021
:10024D00EF33FFEE33FEED33FDEC33FCD5F0ED2255
:0E025D00E5F0247EA2D513CC92E7CDCEFF2291
:10026B00EDD2E7CD33EC3392D524814006E4FFFE8B
:10027B00FDFC22FCE4CFCECDCC24E0501174FF80EA
:10028B00EDC3CC13CCCD13CDCE13CECF13CF047087
:07029B00F030D5DE0202EC99
:1002A200E9D2E7C933E833F892D5EDD2E7CD33ECA2
:0702B20033FC5002B2D5221B
:1002B900EC30E7100FBF000C0EBE00080DBD0004A6
:1002C9000BEB6014A2D5EB13FCED92E7FD2274FF52
:1002D900FCFDFEFF22E480F8A2D574FF13FC7D80AB
:0302E900E480EFBF
:0300000002048473
:0C048400787FE4F6D8FD75814A0204CBB5
:0E02EC00C3E49FFFE49EFEE49DFDE49CFC2223
:100490000202FAE493A3F8E493A34003F68001F286
:1004A00008DFF48029E493A3F85407240CC8C3336D
:1004B000C4540F4420C8834004F456800146F6DF3C
:1004C000E4800B0102040810204080900714E47EB1
:1004D000019360BCA3FF543F30E509541FFEE49331
:1004E000A360010ECF54C025E060A840B8E493A3F8
:1004F000FAE493A3F8E493A3C8C582C8CAC583CA23
:10050000F0A3C8C582C8CAC583CADFE9DEE780BEDA
:01072A0000CE
:00000001FF
